{
  "contractName": "Election",
  "abi": [
    {
      "inputs": [],
      "payable": false,
      "stateMutability": "nonpayable",
      "type": "constructor"
    },
    {
      "constant": true,
      "inputs": [],
      "name": "admin",
      "outputs": [
        {
          "internalType": "address",
          "name": "",
          "type": "address"
        }
      ],
      "payable": false,
      "stateMutability": "view",
      "type": "function"
    },
    {
      "constant": true,
      "inputs": [
        {
          "internalType": "uint256",
          "name": "",
          "type": "uint256"
        }
      ],
      "name": "candidateDetails",
      "outputs": [
        {
          "internalType": "uint256",
          "name": "candidateId",
          "type": "uint256"
        },
        {
          "internalType": "string",
          "name": "header",
          "type": "string"
        },
        {
          "internalType": "string",
          "name": "slogan",
          "type": "string"
        },
        {
          "internalType": "uint256",
          "name": "voteCount",
          "type": "uint256"
        }
      ],
      "payable": false,
      "stateMutability": "view",
      "type": "function"
    },
    {
      "constant": true,
      "inputs": [
        {
          "internalType": "address",
          "name": "",
          "type": "address"
        }
      ],
      "name": "voterDetails",
      "outputs": [
        {
          "internalType": "address",
          "name": "voterAddress",
          "type": "address"
        },
        {
          "internalType": "string",
          "name": "name",
          "type": "string"
        },
        {
          "internalType": "string",
          "name": "phone",
          "type": "string"
        },
        {
          "internalType": "bool",
          "name": "isVerified",
          "type": "bool"
        },
        {
          "internalType": "bool",
          "name": "hasVoted",
          "type": "bool"
        },
        {
          "internalType": "bool",
          "name": "isRegistered",
          "type": "bool"
        }
      ],
      "payable": false,
      "stateMutability": "view",
      "type": "function"
    },
    {
      "constant": true,
      "inputs": [
        {
          "internalType": "uint256",
          "name": "",
          "type": "uint256"
        }
      ],
      "name": "voters",
      "outputs": [
        {
          "internalType": "address",
          "name": "",
          "type": "address"
        }
      ],
      "payable": false,
      "stateMutability": "view",
      "type": "function"
    },
    {
      "constant": true,
      "inputs": [],
      "name": "getAdmin",
      "outputs": [
        {
          "internalType": "address",
          "name": "",
          "type": "address"
        }
      ],
      "payable": false,
      "stateMutability": "view",
      "type": "function"
    },
    {
      "constant": false,
      "inputs": [
        {
          "internalType": "string",
          "name": "_header",
          "type": "string"
        },
        {
          "internalType": "string",
          "name": "_slogan",
          "type": "string"
        }
      ],
      "name": "addCandidate",
      "outputs": [],
      "payable": false,
      "stateMutability": "nonpayable",
      "type": "function"
    },
    {
      "constant": true,
      "inputs": [],
      "name": "getTotalCandidate",
      "outputs": [
        {
          "internalType": "uint256",
          "name": "",
          "type": "uint256"
        }
      ],
      "payable": false,
      "stateMutability": "view",
      "type": "function"
    },
    {
      "constant": true,
      "inputs": [],
      "name": "getTotalVoter",
      "outputs": [
        {
          "internalType": "uint256",
          "name": "",
          "type": "uint256"
        }
      ],
      "payable": false,
      "stateMutability": "view",
      "type": "function"
    },
    {
      "constant": false,
      "inputs": [
        {
          "internalType": "string",
          "name": "_name",
          "type": "string"
        },
        {
          "internalType": "string",
          "name": "_phone",
          "type": "string"
        }
      ],
      "name": "registerAsVoter",
      "outputs": [],
      "payable": false,
      "stateMutability": "nonpayable",
      "type": "function"
    },
    {
      "constant": false,
      "inputs": [
        {
          "internalType": "bool",
          "name": "_verifedStatus",
          "type": "bool"
        },
        {
          "internalType": "address",
          "name": "voterAddress",
          "type": "address"
        }
      ],
      "name": "verifyVoter",
      "outputs": [],
      "payable": false,
      "stateMutability": "nonpayable",
      "type": "function"
    },
    {
      "constant": false,
      "inputs": [
        {
          "internalType": "uint256",
          "name": "candidateId",
          "type": "uint256"
        }
      ],
      "name": "vote",
      "outputs": [],
      "payable": false,
      "stateMutability": "nonpayable",
      "type": "function"
    },
    {
      "constant": false,
      "inputs": [],
      "name": "startElection",
      "outputs": [],
      "payable": false,
      "stateMutability": "nonpayable",
      "type": "function"
    },
    {
      "constant": true,
      "inputs": [],
      "name": "getStart",
      "outputs": [
        {
          "internalType": "bool",
          "name": "",
          "type": "bool"
        }
      ],
      "payable": false,
      "stateMutability": "view",
      "type": "function"
    },
    {
      "constant": false,
      "inputs": [],
      "name": "endElection",
      "outputs": [],
      "payable": false,
      "stateMutability": "nonpayable",
      "type": "function"
    },
    {
      "constant": true,
      "inputs": [],
      "name": "getEnd",
      "outputs": [
        {
          "internalType": "bool",
          "name": "",
          "type": "bool"
        }
      ],
      "payable": false,
      "stateMutability": "view",
      "type": "function"
    }
  ],
  "bytecode": "0x608060405234801561001057600080fd5b50336000806101000a81548173ffffffffffffffffffffffffffffffffffffffff021916908373ffffffffffffffffffffffffffffffffffffffff160217905550600060018190555060006002819055506000600360006101000a81548160ff0219169083151502179055506000600360016101000a81548160ff0219169083151502179055506113da806100a66000396000f3fe608060405234801561001057600080fd5b50600436106100f55760003560e01c806362d73eb811610097578063c5292c6711610066578063c5292c6714610624578063da58c7d914610646578063f851a440146106b4578063fee0d19a146106fe576100f5565b806362d73eb81461059057806364d198a11461059a5780636e9960c3146105b85780639f05a36d14610602576100f5565b8063506b8e0a116100d3578063506b8e0a146102985780635938750d146102e857806359f78468146104655780636247e5321461046f576100f5565b80630121b93f146100fa5780630b93400e1461012857806326541b5614610146575b600080fd5b6101266004803603602081101561011057600080fd5b8101908080359060200190929190505050610850565b005b6101306109d3565b6040518082815260200191505060405180910390f35b6102966004803603604081101561015c57600080fd5b810190808035906020019064010000000081111561017957600080fd5b82018360208201111561018b57600080fd5b803590602001918460018302840111640100000000831117156101ad57600080fd5b91908080601f016020809104026020016040519081016040528093929190818152602001838380828437600081840152601f19601f8201169050808301925050505050505091929192908035906020019064010000000081111561021057600080fd5b82018360208201111561022257600080fd5b8035906020019184600183028401116401000000008311171561024457600080fd5b91908080601f016020809104026020016040519081016040528093929190818152602001838380828437600081840152601f19601f8201169050808301925050505050505091929192905050506109dd565b005b6102e6600480360360408110156102ae57600080fd5b81019080803515159060200190929190803573ffffffffffffffffffffffffffffffffffffffff169060200190929190505050610ae2565b005b61032a600480360360208110156102fe57600080fd5b81019080803573ffffffffffffffffffffffffffffffffffffffff169060200190929190505050610b99565b604051808773ffffffffffffffffffffffffffffffffffffffff1673ffffffffffffffffffffffffffffffffffffffff1681526020018060200180602001861515151581526020018515151515815260200184151515158152602001838103835288818151815260200191508051906020019080838360005b838110156103be5780820151818401526020810190506103a3565b50505050905090810190601f1680156103eb5780820380516001836020036101000a031916815260200191505b50838103825287818151815260200191508051906020019080838360005b83811015610424578082015181840152602081019050610409565b50505050905090810190601f1680156104515780820380516001836020036101000a031916815260200191505b509850505050505050505060405180910390f35b61046d610d4c565b005b61049b6004803603602081101561048557600080fd5b8101908080359060200190929190505050610ddd565b604051808581526020018060200180602001848152602001838103835286818151815260200191508051906020019080838360005b838110156104eb5780820151818401526020810190506104d0565b50505050905090810190601f1680156105185780820380516001836020036101000a031916815260200191505b50838103825285818151815260200191508051906020019080838360005b83811015610551578082015181840152602081019050610536565b50505050905090810190601f16801561057e5780820380516001836020036101000a031916815260200191505b50965050505050505060405180910390f35b610598610f3d565b005b6105a2610fce565b6040518082815260200191505060405180910390f35b6105c0610fd8565b604051808273ffffffffffffffffffffffffffffffffffffffff1673ffffffffffffffffffffffffffffffffffffffff16815260200191505060405180910390f35b61060a611001565b604051808215151515815260200191505060405180910390f35b61062c611018565b604051808215151515815260200191505060405180910390f35b6106726004803603602081101561065c57600080fd5b810190808035906020019092919050505061102f565b604051808273ffffffffffffffffffffffffffffffffffffffff1673ffffffffffffffffffffffffffffffffffffffff16815260200191505060405180910390f35b6106bc61106b565b604051808273ffffffffffffffffffffffffffffffffffffffff1673ffffffffffffffffffffffffffffffffffffffff16815260200191505060405180910390f35b61084e6004803603604081101561071457600080fd5b810190808035906020019064010000000081111561073157600080fd5b82018360208201111561074357600080fd5b8035906020019184600183028401116401000000008311171561076557600080fd5b91908080601f016020809104026020016040519081016040528093929190818152602001838380828437600081840152601f19601f820116905080830192505050505050509192919290803590602001906401000000008111156107c857600080fd5b8201836020820111156107da57600080fd5b803590602001918460018302840111640100000000831117156107fc57600080fd5b91908080601f016020809104026020016040519081016040528093929190818152602001838380828437600081840152601f19601f820116905080830192505050505050509192919290505050611090565b005b60001515600660003373ffffffffffffffffffffffffffffffffffffffff1673ffffffffffffffffffffffffffffffffffffffff16815260200190815260200160002060030160019054906101000a900460ff161515146108b057600080fd5b60011515600660003373ffffffffffffffffffffffffffffffffffffffff1673ffffffffffffffffffffffffffffffffffffffff16815260200190815260200160002060030160009054906101000a900460ff1615151461091057600080fd5b60011515600360009054906101000a900460ff1615151461093057600080fd5b60001515600360019054906101000a900460ff1615151461095057600080fd5b600160046000838152602001908152602001600020600301600082825401925050819055506001600660003373ffffffffffffffffffffffffffffffffffffffff1673ffffffffffffffffffffffffffffffffffffffff16815260200190815260200160002060030160016101000a81548160ff02191690831515021790555050565b6000600254905090565b6000809054906101000a900473ffffffffffffffffffffffffffffffffffffffff1673ffffffffffffffffffffffffffffffffffffffff163373ffffffffffffffffffffffffffffffffffffffff1614610a3657600080fd5b610a3e611286565b6040518060800160405280600180540181526020018481526020018381526020016000815250905080600460006001548152602001908152602001600020600082015181600001556020820151816001019080519060200190610aa29291906112ae565b506040820151816002019080519060200190610abf9291906112ae565b506060820151816003015590505060018060008282540192505081905550505050565b6000809054906101000a900473ffffffffffffffffffffffffffffffffffffffff1673ffffffffffffffffffffffffffffffffffffffff163373ffffffffffffffffffffffffffffffffffffffff1614610b3b57600080fd5b81600660008373ffffffffffffffffffffffffffffffffffffffff1673ffffffffffffffffffffffffffffffffffffffff16815260200190815260200160002060030160006101000a81548160ff0219169083151502179055505050565b60066020528060005260406000206000915090508060000160009054906101000a900473ffffffffffffffffffffffffffffffffffffffff1690806001018054600181600116156101000203166002900480601f016020809104026020016040519081016040528092919081815260200182805460018160011615610100020316600290048015610c6b5780601f10610c4057610100808354040283529160200191610c6b565b820191906000526020600020905b815481529060010190602001808311610c4e57829003601f168201915b505050505090806002018054600181600116156101000203166002900480601f016020809104026020016040519081016040528092919081815260200182805460018160011615610100020316600290048015610d095780601f10610cde57610100808354040283529160200191610d09565b820191906000526020600020905b815481529060010190602001808311610cec57829003601f168201915b5050505050908060030160009054906101000a900460ff16908060030160019054906101000a900460ff16908060030160029054906101000a900460ff16905086565b6000809054906101000a900473ffffffffffffffffffffffffffffffffffffffff1673ffffffffffffffffffffffffffffffffffffffff163373ffffffffffffffffffffffffffffffffffffffff1614610da557600080fd5b6001600360016101000a81548160ff0219169083151502179055506000600360006101000a81548160ff021916908315150217905550565b6004602052806000526040600020600091509050806000015490806001018054600181600116156101000203166002900480601f016020809104026020016040519081016040528092919081815260200182805460018160011615610100020316600290048015610e8f5780601f10610e6457610100808354040283529160200191610e8f565b820191906000526020600020905b815481529060010190602001808311610e7257829003601f168201915b505050505090806002018054600181600116156101000203166002900480601f016020809104026020016040519081016040528092919081815260200182805460018160011615610100020316600290048015610f2d5780601f10610f0257610100808354040283529160200191610f2d565b820191906000526020600020905b815481529060010190602001808311610f1057829003601f168201915b5050505050908060030154905084565b6000809054906101000a900473ffffffffffffffffffffffffffffffffffffffff1673ffffffffffffffffffffffffffffffffffffffff163373ffffffffffffffffffffffffffffffffffffffff1614610f9657600080fd5b6001600360006101000a81548160ff0219169083151502179055506000600360016101000a81548160ff021916908315150217905550565b6000600154905090565b60008060009054906101000a900473ffffffffffffffffffffffffffffffffffffffff16905090565b6000600360019054906101000a900460ff16905090565b6000600360009054906101000a900460ff16905090565b6005818154811061103c57fe5b906000526020600020016000915054906101000a900473ffffffffffffffffffffffffffffffffffffffff1681565b6000809054906101000a900473ffffffffffffffffffffffffffffffffffffffff1681565b61109861132e565b6040518060c001604052803373ffffffffffffffffffffffffffffffffffffffff16815260200184815260200183815260200160001515815260200160001515815260200160011515815250905080600660003373ffffffffffffffffffffffffffffffffffffffff1673ffffffffffffffffffffffffffffffffffffffff16815260200190815260200160002060008201518160000160006101000a81548173ffffffffffffffffffffffffffffffffffffffff021916908373ffffffffffffffffffffffffffffffffffffffff16021790555060208201518160010190805190602001906111899291906112ae565b5060408201518160020190805190602001906111a69291906112ae565b5060608201518160030160006101000a81548160ff02191690831515021790555060808201518160030160016101000a81548160ff02191690831515021790555060a08201518160030160026101000a81548160ff02191690831515021790555090505060053390806001815401808255809150509060018203906000526020600020016000909192909190916101000a81548173ffffffffffffffffffffffffffffffffffffffff021916908373ffffffffffffffffffffffffffffffffffffffff160217905550506001600260008282540192505081905550505050565b6040518060800160405280600081526020016060815260200160608152602001600081525090565b828054600181600116156101000203166002900490600052602060002090601f016020900481019282601f106112ef57805160ff191683800117855561131d565b8280016001018555821561131d579182015b8281111561131c578251825591602001919060010190611301565b5b50905061132a9190611380565b5090565b6040518060c00160405280600073ffffffffffffffffffffffffffffffffffffffff16815260200160608152602001606081526020016000151581526020016000151581526020016000151581525090565b6113a291905b8082111561139e576000816000905550600101611386565b5090565b9056fea265627a7a7231582026805caa26ab96211ae28cef2055c5f99ae91f1ed62d1b95835c9a17e8e3f15c64736f6c63430005100032",
  "source": "// SPDX-License-Identifier: MIT\npragma solidity >=0.4.21 <0.8.0;\n\ncontract Election {\n    address public admin;\n    uint256 candidateCount;\n    uint256 voterCount;\n    bool start;\n    bool end;\n\n    constructor() public {\n        // Initilizing default values\n        admin = msg.sender;\n        candidateCount = 0;\n        voterCount = 0;\n        start = false;\n        end = false;\n    }\n\n    function getAdmin() public view returns (address) {\n        // Returns account address used to deploy contract (i.e. admin)\n        return admin;\n    }\n\n    modifier onlyAdmin() {\n        // modifier for only admin access\n        require(msg.sender == admin);\n        _;\n    }\n    struct Candidate {\n        // Modeling a candidate\n        uint256 candidateId;\n        string header;\n        string slogan;\n        uint256 voteCount;\n    }\n    mapping(uint256 => Candidate) public candidateDetails;\n\n    function addCandidate(string memory _header, string memory _slogan)\n        public\n        // Only admin can add\n        onlyAdmin\n    {\n        Candidate memory newCandidate =\n            Candidate({\n                candidateId: candidateCount + 1,\n                header: _header,\n                slogan: _slogan,\n                voteCount: 0\n            });\n        candidateDetails[candidateCount] = newCandidate;\n        candidateCount += 1;\n    }\n\n    function getTotalCandidate() public view returns (uint256) {\n        // Returns total number of candidates\n        return candidateCount;\n    }\n\n    function getTotalVoter() public view returns (uint256) {\n        // Returns total number of voters\n        return voterCount;\n    }\n\n    struct Voter {\n        // Modeling a voter\n        address voterAddress;\n        string name;\n        string phone;\n        bool isVerified;\n        bool hasVoted;\n        bool isRegistered;\n    }\n\n    address[] public voters; // Array of address to store address of voters\n    mapping(address => Voter) public voterDetails;\n\n    // Request to be added as voter\n    function registerAsVoter(string memory _name, string memory _phone) public {\n        Voter memory newVoter =\n            Voter({\n                voterAddress: msg.sender,\n                name: _name,\n                phone: _phone,\n                hasVoted: false,\n                isVerified: false,\n                isRegistered: true\n            });\n        voterDetails[msg.sender] = newVoter;\n        voters.push(msg.sender);\n        voterCount += 1;\n    }\n\n    // Verify voter\n    function verifyVoter(bool _verifedStatus, address voterAddress)\n        public\n        // Only admin can verify\n        onlyAdmin\n    {\n        voterDetails[voterAddress].isVerified = _verifedStatus;\n        // Voter storage voter = Voters[voterAddress];\n        // voter.isVerified: _verifedStatus;\n    }\n\n    function vote(uint256 candidateId) public {\n        require(voterDetails[msg.sender].hasVoted == false);\n        require(voterDetails[msg.sender].isVerified == true);\n        require(start == true);\n        require(end == false);\n        candidateDetails[candidateId].voteCount += 1;\n        voterDetails[msg.sender].hasVoted = true;\n    }\n\n    // Start election\n    function startElection() public onlyAdmin {\n        start = true;\n        end = false;\n    }\n\n    function getStart() public view returns (bool) {\n        return start;\n    }\n\n    // End election\n    function endElection() public onlyAdmin {\n        end = true;\n        start = false;\n    }\n\n    function getEnd() public view returns (bool) {\n        return end;\n    }\n}\n",
  "sourcePath": "C:/Users/bibek/Documents/arlbibek/dVoting/contracts/Election.sol",
  "compiler": {
    "name": "solc",
    "version": "0.5.16+commit.9c3226ce.Emscripten.clang"
  },
  "schemaVersion": "3.3.4",
  "updatedAt": "2021-03-31T09:50:10.941Z",
  "networkType": "ethereum",
  "devdoc": {
    "methods": {}
  },
  "userdoc": {
    "methods": {}
  }
}