{
  "contractName": "Election",
  "abi": [
    {
      "inputs": [],
      "payable": false,
      "stateMutability": "nonpayable",
      "type": "constructor"
    },
    {
      "constant": true,
      "inputs": [],
      "name": "admin",
      "outputs": [
        {
          "internalType": "address",
          "name": "",
          "type": "address"
        }
      ],
      "payable": false,
      "stateMutability": "view",
      "type": "function"
    },
    {
      "constant": true,
      "inputs": [
        {
          "internalType": "uint256",
          "name": "",
          "type": "uint256"
        }
      ],
      "name": "candidateDetails",
      "outputs": [
        {
          "internalType": "uint256",
          "name": "candidateId",
          "type": "uint256"
        },
        {
          "internalType": "string",
          "name": "header",
          "type": "string"
        },
        {
          "internalType": "string",
          "name": "slogan",
          "type": "string"
        },
        {
          "internalType": "uint256",
          "name": "voteCount",
          "type": "uint256"
        }
      ],
      "payable": false,
      "stateMutability": "view",
      "type": "function"
    },
    {
      "constant": true,
      "inputs": [
        {
          "internalType": "address",
          "name": "",
          "type": "address"
        }
      ],
      "name": "voterDetails",
      "outputs": [
        {
          "internalType": "address",
          "name": "voterAddress",
          "type": "address"
        },
        {
          "internalType": "string",
          "name": "name",
          "type": "string"
        },
        {
          "internalType": "string",
          "name": "phone",
          "type": "string"
        },
        {
          "internalType": "bool",
          "name": "hasVoted",
          "type": "bool"
        },
        {
          "internalType": "bool",
          "name": "isVerified",
          "type": "bool"
        }
      ],
      "payable": false,
      "stateMutability": "view",
      "type": "function"
    },
    {
      "constant": true,
      "inputs": [
        {
          "internalType": "uint256",
          "name": "",
          "type": "uint256"
        }
      ],
      "name": "voters",
      "outputs": [
        {
          "internalType": "address",
          "name": "",
          "type": "address"
        }
      ],
      "payable": false,
      "stateMutability": "view",
      "type": "function"
    },
    {
      "constant": true,
      "inputs": [],
      "name": "getAdmin",
      "outputs": [
        {
          "internalType": "address",
          "name": "",
          "type": "address"
        }
      ],
      "payable": false,
      "stateMutability": "view",
      "type": "function"
    },
    {
      "constant": false,
      "inputs": [
        {
          "internalType": "string",
          "name": "_header",
          "type": "string"
        },
        {
          "internalType": "string",
          "name": "_slogan",
          "type": "string"
        }
      ],
      "name": "addCandidate",
      "outputs": [],
      "payable": false,
      "stateMutability": "nonpayable",
      "type": "function"
    },
    {
      "constant": true,
      "inputs": [],
      "name": "getCandidateNumber",
      "outputs": [
        {
          "internalType": "uint256",
          "name": "",
          "type": "uint256"
        }
      ],
      "payable": false,
      "stateMutability": "view",
      "type": "function"
    },
    {
      "constant": false,
      "inputs": [
        {
          "internalType": "string",
          "name": "_name",
          "type": "string"
        },
        {
          "internalType": "string",
          "name": "_phone",
          "type": "string"
        }
      ],
      "name": "requestVoter",
      "outputs": [],
      "payable": false,
      "stateMutability": "nonpayable",
      "type": "function"
    },
    {
      "constant": false,
      "inputs": [
        {
          "internalType": "uint256",
          "name": "candidateId",
          "type": "uint256"
        }
      ],
      "name": "vote",
      "outputs": [],
      "payable": false,
      "stateMutability": "nonpayable",
      "type": "function"
    },
    {
      "constant": false,
      "inputs": [],
      "name": "startElection",
      "outputs": [],
      "payable": false,
      "stateMutability": "nonpayable",
      "type": "function"
    },
    {
      "constant": false,
      "inputs": [],
      "name": "endElection",
      "outputs": [],
      "payable": false,
      "stateMutability": "nonpayable",
      "type": "function"
    },
    {
      "constant": true,
      "inputs": [],
      "name": "getStart",
      "outputs": [
        {
          "internalType": "bool",
          "name": "",
          "type": "bool"
        }
      ],
      "payable": false,
      "stateMutability": "view",
      "type": "function"
    },
    {
      "constant": true,
      "inputs": [],
      "name": "getEnd",
      "outputs": [
        {
          "internalType": "bool",
          "name": "",
          "type": "bool"
        }
      ],
      "payable": false,
      "stateMutability": "view",
      "type": "function"
    }
  ],
  "bytecode": "0x608060405234801561001057600080fd5b50336000806101000a81548173ffffffffffffffffffffffffffffffffffffffff021916908373ffffffffffffffffffffffffffffffffffffffff160217905550600060018190555060006002819055506000600360006101000a81548160ff0219169083151502179055506000600360016101000a81548160ff021916908315150217905550611233806100a66000396000f3fe608060405234801561001057600080fd5b50600436106100cf5760003560e01c80636247e5321161008c5780639f05a36d116100665780639f05a36d146106b5578063c5292c67146106d7578063da58c7d9146106f9578063f851a44014610767576100cf565b80636247e5321461054057806362d73eb8146106615780636e9960c31461066b576100cf565b80630121b93f146100d457806308c550321461010257806326541b5614610254578063364dff25146103a65780635938750d146103c457806359f7846814610536575b600080fd5b610100600480360360208110156100ea57600080fd5b81019080803590602001909291905050506107b1565b005b6102526004803603604081101561011857600080fd5b810190808035906020019064010000000081111561013557600080fd5b82018360208201111561014757600080fd5b8035906020019184600183028401116401000000008311171561016957600080fd5b91908080601f016020809104026020016040519081016040528093929190818152602001838380828437600081840152601f19601f820116905080830192505050505050509192919290803590602001906401000000008111156101cc57600080fd5b8201836020820111156101de57600080fd5b8035906020019184600183028401116401000000008311171561020057600080fd5b91908080601f016020809104026020016040519081016040528093929190818152602001838380828437600081840152601f19601f820116905080830192505050505050509192919290505050610934565b005b6103a46004803603604081101561026a57600080fd5b810190808035906020019064010000000081111561028757600080fd5b82018360208201111561029957600080fd5b803590602001918460018302840111640100000000831117156102bb57600080fd5b91908080601f016020809104026020016040519081016040528093929190818152602001838380828437600081840152601f19601f8201169050808301925050505050505091929192908035906020019064010000000081111561031e57600080fd5b82018360208201111561033057600080fd5b8035906020019184600183028401116401000000008311171561035257600080fd5b91908080601f016020809104026020016040519081016040528093929190818152602001838380828437600081840152601f19601f820116905080830192505050505050509192919290505050610b01565b005b6103ae610c04565b6040518082815260200191505060405180910390f35b610406600480360360208110156103da57600080fd5b81019080803573ffffffffffffffffffffffffffffffffffffffff169060200190929190505050610c0e565b604051808673ffffffffffffffffffffffffffffffffffffffff1673ffffffffffffffffffffffffffffffffffffffff16815260200180602001806020018515151515815260200184151515158152602001838103835287818151815260200191508051906020019080838360005b83811015610490578082015181840152602081019050610475565b50505050905090810190601f1680156104bd5780820380516001836020036101000a031916815260200191505b50838103825286818151815260200191508051906020019080838360005b838110156104f65780820151818401526020810190506104db565b50505050905090810190601f1680156105235780820380516001836020036101000a031916815260200191505b5097505050505050505060405180910390f35b61053e610dae565b005b61056c6004803603602081101561055657600080fd5b8101908080359060200190929190505050610e3f565b604051808581526020018060200180602001848152602001838103835286818151815260200191508051906020019080838360005b838110156105bc5780820151818401526020810190506105a1565b50505050905090810190601f1680156105e95780820380516001836020036101000a031916815260200191505b50838103825285818151815260200191508051906020019080838360005b83811015610622578082015181840152602081019050610607565b50505050905090810190601f16801561064f5780820380516001836020036101000a031916815260200191505b50965050505050505060405180910390f35b610669610f9f565b005b610673611030565b604051808273ffffffffffffffffffffffffffffffffffffffff1673ffffffffffffffffffffffffffffffffffffffff16815260200191505060405180910390f35b6106bd611059565b604051808215151515815260200191505060405180910390f35b6106df611070565b604051808215151515815260200191505060405180910390f35b6107256004803603602081101561070f57600080fd5b8101908080359060200190929190505050611087565b604051808273ffffffffffffffffffffffffffffffffffffffff1673ffffffffffffffffffffffffffffffffffffffff16815260200191505060405180910390f35b61076f6110c3565b604051808273ffffffffffffffffffffffffffffffffffffffff1673ffffffffffffffffffffffffffffffffffffffff16815260200191505060405180910390f35b60001515600660003373ffffffffffffffffffffffffffffffffffffffff1673ffffffffffffffffffffffffffffffffffffffff16815260200190815260200160002060030160009054906101000a900460ff1615151461081157600080fd5b60011515600660003373ffffffffffffffffffffffffffffffffffffffff1673ffffffffffffffffffffffffffffffffffffffff16815260200190815260200160002060030160019054906101000a900460ff1615151461087157600080fd5b60011515600360009054906101000a900460ff1615151461089157600080fd5b60001515600360019054906101000a900460ff161515146108b157600080fd5b600160046000838152602001908152602001600020600301600082825401925050819055506001600660003373ffffffffffffffffffffffffffffffffffffffff1673ffffffffffffffffffffffffffffffffffffffff16815260200190815260200160002060030160006101000a81548160ff02191690831515021790555050565b61093c6110e8565b6040518060a001604052803373ffffffffffffffffffffffffffffffffffffffff16815260200184815260200183815260200160001515815260200160001515815250905080600660003373ffffffffffffffffffffffffffffffffffffffff1673ffffffffffffffffffffffffffffffffffffffff16815260200190815260200160002060008201518160000160006101000a81548173ffffffffffffffffffffffffffffffffffffffff021916908373ffffffffffffffffffffffffffffffffffffffff1602179055506020820151816001019080519060200190610a24929190611131565b506040820151816002019080519060200190610a41929190611131565b5060608201518160030160006101000a81548160ff02191690831515021790555060808201518160030160016101000a81548160ff02191690831515021790555090505060053390806001815401808255809150509060018203906000526020600020016000909192909190916101000a81548173ffffffffffffffffffffffffffffffffffffffff021916908373ffffffffffffffffffffffffffffffffffffffff160217905550506001600260008282540192505081905550505050565b6000809054906101000a900473ffffffffffffffffffffffffffffffffffffffff1673ffffffffffffffffffffffffffffffffffffffff163373ffffffffffffffffffffffffffffffffffffffff1614610b5a57600080fd5b610b626111b1565b604051806080016040528060015481526020018481526020018381526020016000815250905080600460006001548152602001908152602001600020600082015181600001556020820151816001019080519060200190610bc4929190611131565b506040820151816002019080519060200190610be1929190611131565b506060820151816003015590505060018060008282540192505081905550505050565b6000600154905090565b60066020528060005260406000206000915090508060000160009054906101000a900473ffffffffffffffffffffffffffffffffffffffff1690806001018054600181600116156101000203166002900480601f016020809104026020016040519081016040528092919081815260200182805460018160011615610100020316600290048015610ce05780601f10610cb557610100808354040283529160200191610ce0565b820191906000526020600020905b815481529060010190602001808311610cc357829003601f168201915b505050505090806002018054600181600116156101000203166002900480601f016020809104026020016040519081016040528092919081815260200182805460018160011615610100020316600290048015610d7e5780601f10610d5357610100808354040283529160200191610d7e565b820191906000526020600020905b815481529060010190602001808311610d6157829003601f168201915b5050505050908060030160009054906101000a900460ff16908060030160019054906101000a900460ff16905085565b6000809054906101000a900473ffffffffffffffffffffffffffffffffffffffff1673ffffffffffffffffffffffffffffffffffffffff163373ffffffffffffffffffffffffffffffffffffffff1614610e0757600080fd5b6001600360016101000a81548160ff0219169083151502179055506000600360006101000a81548160ff021916908315150217905550565b6004602052806000526040600020600091509050806000015490806001018054600181600116156101000203166002900480601f016020809104026020016040519081016040528092919081815260200182805460018160011615610100020316600290048015610ef15780601f10610ec657610100808354040283529160200191610ef1565b820191906000526020600020905b815481529060010190602001808311610ed457829003601f168201915b505050505090806002018054600181600116156101000203166002900480601f016020809104026020016040519081016040528092919081815260200182805460018160011615610100020316600290048015610f8f5780601f10610f6457610100808354040283529160200191610f8f565b820191906000526020600020905b815481529060010190602001808311610f7257829003601f168201915b5050505050908060030154905084565b6000809054906101000a900473ffffffffffffffffffffffffffffffffffffffff1673ffffffffffffffffffffffffffffffffffffffff163373ffffffffffffffffffffffffffffffffffffffff1614610ff857600080fd5b6001600360006101000a81548160ff0219169083151502179055506000600360016101000a81548160ff021916908315150217905550565b60008060009054906101000a900473ffffffffffffffffffffffffffffffffffffffff16905090565b6000600360019054906101000a900460ff16905090565b6000600360009054906101000a900460ff16905090565b6005818154811061109457fe5b906000526020600020016000915054906101000a900473ffffffffffffffffffffffffffffffffffffffff1681565b6000809054906101000a900473ffffffffffffffffffffffffffffffffffffffff1681565b6040518060a00160405280600073ffffffffffffffffffffffffffffffffffffffff16815260200160608152602001606081526020016000151581526020016000151581525090565b828054600181600116156101000203166002900490600052602060002090601f016020900481019282601f1061117257805160ff19168380011785556111a0565b828001600101855582156111a0579182015b8281111561119f578251825591602001919060010190611184565b5b5090506111ad91906111d9565b5090565b6040518060800160405280600081526020016060815260200160608152602001600081525090565b6111fb91905b808211156111f75760008160009055506001016111df565b5090565b9056fea265627a7a72315820bf05fe44e8b3075f903e9c59e117f83ec75cad97e1047edea535f8bc27c5b89264736f6c63430005100032",
  "source": "// SPDX-License-Identifier: MIT\npragma solidity >=0.4.21 <0.8.0;\n\ncontract Election {\n    address public admin;\n    uint256 candidateCount;\n    uint256 voterCount;\n    bool start;\n    bool end;\n\n    // Constructor\n    constructor() public {\n        // Initilizing default values\n        admin = msg.sender;\n        candidateCount = 0;\n        voterCount = 0;\n        start = false;\n        end = false;\n    }\n\n    function getAdmin() public view returns (address) {\n        // Returns address of the admin (i.e. account which was used to deploy contract)\n        return admin;\n    }\n\n    modifier onlyAdmin() {\n        // Allowing only admin can access\n        require(msg.sender == admin);\n        _;\n    }\n    struct Candidate {\n        // Modeling a candidate\n        uint256 candidateId;\n        string header;\n        string slogan;\n        uint256 voteCount;\n    }\n    mapping(uint256 => Candidate) public candidateDetails;\n\n    // function to add candidates\n    function addCandidate(string memory _header, string memory _slogan)\n        public\n        // Only admin can add\n        onlyAdmin\n    {\n        Candidate memory newCandidate =\n            Candidate({\n                candidateId: candidateCount,\n                header: _header,\n                slogan: _slogan,\n                voteCount: 0\n            });\n        candidateDetails[candidateCount] = newCandidate;\n        candidateCount += 1;\n    }\n\n    // get total number of candidates\n    function getCandidateNumber() public view returns (uint256) {\n        return candidateCount;\n    }\n\n    struct Voter {\n        // Modeling a voter\n        address voterAddress;\n        string name;\n        string phone;\n        bool hasVoted;\n        bool isVerified;\n    }\n\n    address[] public voters; // Array of address to store address of voters\n    mapping(address => Voter) public voterDetails;\n\n    // request to be added as voter\n    function requestVoter(string memory _name, string memory _phone) public {\n        Voter memory newVoter =\n            Voter({\n                voterAddress: msg.sender,\n                name: _name,\n                phone: _phone,\n                hasVoted: false,\n                isVerified: false\n            });\n        voterDetails[msg.sender] = newVoter;\n        voters.push(msg.sender);\n        voterCount += 1;\n    }\n\n    function vote(uint256 candidateId) public {\n        require(voterDetails[msg.sender].hasVoted == false);\n        require(voterDetails[msg.sender].isVerified == true);\n        require(start == true);\n        require(end == false);\n        candidateDetails[candidateId].voteCount += 1;\n        voterDetails[msg.sender].hasVoted = true;\n    }\n    // election start/end\n    function startElection() public onlyAdmin {\n        start = true;\n        end = false;\n    }\n\n    function endElection() public onlyAdmin {\n        end = true;\n        start = false;\n    }\n\n    function getStart() public view returns (bool) {\n        return start;\n    }\n\n    function getEnd() public view returns (bool) {\n        return end;\n    }\n}\n",
  "sourcePath": "C:/Users/bibek/Documents/arlbibek/dVoting/contracts/Election.sol",
  "compiler": {
    "name": "solc",
    "version": "0.5.16+commit.9c3226ce.Emscripten.clang"
  },
  "schemaVersion": "3.3.4",
  "updatedAt": "2021-03-21T08:26:52.145Z",
  "networkType": "ethereum",
  "devdoc": {
    "methods": {}
  },
  "userdoc": {
    "methods": {}
  }
}